{
  "contractName": "KleeCoinV2",
  "abi": [
    {
      "inputs": [],
      "stateMutability": "nonpayable",
      "type": "constructor"
    },
    {
      "anonymous": false,
      "inputs": [
        {
          "indexed": true,
          "internalType": "address",
          "name": "owner",
          "type": "address"
        },
        {
          "indexed": true,
          "internalType": "address",
          "name": "spender",
          "type": "address"
        },
        {
          "indexed": false,
          "internalType": "uint256",
          "name": "value",
          "type": "uint256"
        }
      ],
      "name": "Approval",
      "type": "event"
    },
    {
      "anonymous": false,
      "inputs": [
        {
          "indexed": true,
          "internalType": "address",
          "name": "previousOwner",
          "type": "address"
        },
        {
          "indexed": true,
          "internalType": "address",
          "name": "newOwner",
          "type": "address"
        }
      ],
      "name": "OwnershipTransferred",
      "type": "event"
    },
    {
      "anonymous": false,
      "inputs": [
        {
          "indexed": true,
          "internalType": "address",
          "name": "from",
          "type": "address"
        },
        {
          "indexed": true,
          "internalType": "address",
          "name": "to",
          "type": "address"
        },
        {
          "indexed": false,
          "internalType": "uint256",
          "name": "value",
          "type": "uint256"
        }
      ],
      "name": "Transfer",
      "type": "event"
    },
    {
      "inputs": [
        {
          "internalType": "address",
          "name": "owner",
          "type": "address"
        },
        {
          "internalType": "address",
          "name": "spender",
          "type": "address"
        }
      ],
      "name": "allowance",
      "outputs": [
        {
          "internalType": "uint256",
          "name": "",
          "type": "uint256"
        }
      ],
      "stateMutability": "view",
      "type": "function",
      "constant": true
    },
    {
      "inputs": [
        {
          "internalType": "address",
          "name": "spender",
          "type": "address"
        },
        {
          "internalType": "uint256",
          "name": "amount",
          "type": "uint256"
        }
      ],
      "name": "approve",
      "outputs": [
        {
          "internalType": "bool",
          "name": "",
          "type": "bool"
        }
      ],
      "stateMutability": "nonpayable",
      "type": "function"
    },
    {
      "inputs": [
        {
          "internalType": "address",
          "name": "account",
          "type": "address"
        }
      ],
      "name": "balanceOf",
      "outputs": [
        {
          "internalType": "uint256",
          "name": "",
          "type": "uint256"
        }
      ],
      "stateMutability": "view",
      "type": "function",
      "constant": true
    },
    {
      "inputs": [],
      "name": "decimals",
      "outputs": [
        {
          "internalType": "uint8",
          "name": "",
          "type": "uint8"
        }
      ],
      "stateMutability": "view",
      "type": "function",
      "constant": true
    },
    {
      "inputs": [
        {
          "internalType": "address",
          "name": "spender",
          "type": "address"
        },
        {
          "internalType": "uint256",
          "name": "subtractedValue",
          "type": "uint256"
        }
      ],
      "name": "decreaseAllowance",
      "outputs": [
        {
          "internalType": "bool",
          "name": "",
          "type": "bool"
        }
      ],
      "stateMutability": "nonpayable",
      "type": "function"
    },
    {
      "inputs": [
        {
          "internalType": "address",
          "name": "spender",
          "type": "address"
        },
        {
          "internalType": "uint256",
          "name": "addedValue",
          "type": "uint256"
        }
      ],
      "name": "increaseAllowance",
      "outputs": [
        {
          "internalType": "bool",
          "name": "",
          "type": "bool"
        }
      ],
      "stateMutability": "nonpayable",
      "type": "function"
    },
    {
      "inputs": [],
      "name": "name",
      "outputs": [
        {
          "internalType": "string",
          "name": "",
          "type": "string"
        }
      ],
      "stateMutability": "view",
      "type": "function",
      "constant": true
    },
    {
      "inputs": [],
      "name": "owner",
      "outputs": [
        {
          "internalType": "address",
          "name": "",
          "type": "address"
        }
      ],
      "stateMutability": "view",
      "type": "function",
      "constant": true
    },
    {
      "inputs": [],
      "name": "renounceOwnership",
      "outputs": [],
      "stateMutability": "nonpayable",
      "type": "function"
    },
    {
      "inputs": [],
      "name": "symbol",
      "outputs": [
        {
          "internalType": "string",
          "name": "",
          "type": "string"
        }
      ],
      "stateMutability": "view",
      "type": "function",
      "constant": true
    },
    {
      "inputs": [],
      "name": "totalSupply",
      "outputs": [
        {
          "internalType": "uint256",
          "name": "",
          "type": "uint256"
        }
      ],
      "stateMutability": "view",
      "type": "function",
      "constant": true
    },
    {
      "inputs": [
        {
          "internalType": "address",
          "name": "recipient",
          "type": "address"
        },
        {
          "internalType": "uint256",
          "name": "amount",
          "type": "uint256"
        }
      ],
      "name": "transfer",
      "outputs": [
        {
          "internalType": "bool",
          "name": "",
          "type": "bool"
        }
      ],
      "stateMutability": "nonpayable",
      "type": "function"
    },
    {
      "inputs": [
        {
          "internalType": "address",
          "name": "sender",
          "type": "address"
        },
        {
          "internalType": "address",
          "name": "recipient",
          "type": "address"
        },
        {
          "internalType": "uint256",
          "name": "amount",
          "type": "uint256"
        }
      ],
      "name": "transferFrom",
      "outputs": [
        {
          "internalType": "bool",
          "name": "",
          "type": "bool"
        }
      ],
      "stateMutability": "nonpayable",
      "type": "function"
    },
    {
      "inputs": [
        {
          "internalType": "address",
          "name": "newOwner",
          "type": "address"
        }
      ],
      "name": "transferOwnership",
      "outputs": [],
      "stateMutability": "nonpayable",
      "type": "function"
    },
    {
      "inputs": [],
      "name": "buyCoin",
      "outputs": [],
      "stateMutability": "payable",
      "type": "function",
      "payable": true
    },
    {
      "inputs": [
        {
          "internalType": "uint256",
          "name": "newExchangeRate",
          "type": "uint256"
        }
      ],
      "name": "setExchangeRate",
      "outputs": [],
      "stateMutability": "nonpayable",
      "type": "function"
    },
    {
      "inputs": [],
      "name": "getExchangeRate",
      "outputs": [
        {
          "internalType": "uint256",
          "name": "",
          "type": "uint256"
        }
      ],
      "stateMutability": "view",
      "type": "function",
      "constant": true
    },
    {
      "inputs": [],
      "name": "getEtherBalance",
      "outputs": [
        {
          "internalType": "uint256",
          "name": "",
          "type": "uint256"
        }
      ],
      "stateMutability": "view",
      "type": "function",
      "constant": true
    },
    {
      "inputs": [
        {
          "internalType": "uint256",
          "name": "amount",
          "type": "uint256"
        }
      ],
      "name": "sellCoin",
      "outputs": [],
      "stateMutability": "nonpayable",
      "type": "function"
    }
  ],
  "bytecode": "0x6080604052600a6006553480156200001657600080fd5b506040518060400160405280600a81526020017f4b6c6565436f696e5632000000000000000000000000000000000000000000008152506040518060400160405280600381526020017f4b5632000000000000000000000000000000000000000000000000000000000081525081600390805190602001906200009b929190620003b9565b508060049080519060200190620000b4929190620003b9565b505050620000d7620000cb6200015f60201b60201c565b6200016760201b60201c565b6200011833620000ec6200022d60201b60201c565b60ff16600a620000fd9190620005c4565b6103e86200010c919062000701565b6200023660201b60201c565b62000159306200012d6200022d60201b60201c565b60ff16600a6200013e9190620005c4565b6103e86200014d919062000701565b6200023660201b60201c565b6200080d565b600033905090565b6000600560009054906101000a900473ffffffffffffffffffffffffffffffffffffffff16905081600560006101000a81548173ffffffffffffffffffffffffffffffffffffffff021916908373ffffffffffffffffffffffffffffffffffffffff1602179055508173ffffffffffffffffffffffffffffffffffffffff168173ffffffffffffffffffffffffffffffffffffffff167f8be0079c531659141344cd1fd0a4f28419497f9722a3daafe3b4186f6b6457e060405160405180910390a35050565b60006012905090565b600073ffffffffffffffffffffffffffffffffffffffff168273ffffffffffffffffffffffffffffffffffffffff161415620002a9576040517f08c379a0000000000000000000000000000000000000000000000000000000008152600401620002a090620004bc565b60405180910390fd5b620002bd60008383620003af60201b60201c565b8060026000828254620002d191906200050c565b92505081905550806000808473ffffffffffffffffffffffffffffffffffffffff1673ffffffffffffffffffffffffffffffffffffffff16815260200190815260200160002060008282546200032891906200050c565b925050819055508173ffffffffffffffffffffffffffffffffffffffff16600073ffffffffffffffffffffffffffffffffffffffff167fddf252ad1be2c89b69c2b068fc378daa952ba7f163c4a11628f55a4df523b3ef836040516200038f9190620004de565b60405180910390a3620003ab60008383620003b460201b60201c565b5050565b505050565b505050565b828054620003c7906200076c565b90600052602060002090601f016020900481019282620003eb576000855562000437565b82601f106200040657805160ff191683800117855562000437565b8280016001018555821562000437579182015b828111156200043657825182559160200191906001019062000419565b5b5090506200044691906200044a565b5090565b5b80821115620004655760008160009055506001016200044b565b5090565b600062000478601f83620004fb565b91507f45524332303a206d696e7420746f20746865207a65726f2061646472657373006000830152602082019050919050565b620004b68162000762565b82525050565b60006020820190508181036000830152620004d78162000469565b9050919050565b6000602082019050620004f56000830184620004ab565b92915050565b600082825260208201905092915050565b6000620005198262000762565b9150620005268362000762565b9250827fffffffffffffffffffffffffffffffffffffffffffffffffffffffffffffffff038211156200055e576200055d620007a2565b5b828201905092915050565b6000808291508390505b6001851115620005bb57808604811115620005935762000592620007a2565b5b6001851615620005a35780820291505b8081029050620005b38562000800565b945062000573565b94509492505050565b6000620005d18262000762565b9150620005de8362000762565b92506200060d7fffffffffffffffffffffffffffffffffffffffffffffffffffffffffffffffff848462000615565b905092915050565b600082620006275760019050620006fa565b81620006375760009050620006fa565b81600181146200065057600281146200065b5762000691565b6001915050620006fa565b60ff84111562000670576200066f620007a2565b5b8360020a9150848211156200068a5762000689620007a2565b5b50620006fa565b5060208310610133831016604e8410600b8410161715620006cb5782820a905083811115620006c557620006c4620007a2565b5b620006fa565b620006da848484600162000569565b92509050818404811115620006f457620006f3620007a2565b5b81810290505b9392505050565b60006200070e8262000762565b91506200071b8362000762565b9250817fffffffffffffffffffffffffffffffffffffffffffffffffffffffffffffffff0483118215151615620007575762000756620007a2565b5b828202905092915050565b6000819050919050565b600060028204905060018216806200078557607f821691505b602082108114156200079c576200079b620007d1565b5b50919050565b7f4e487b7100000000000000000000000000000000000000000000000000000000600052601160045260246000fd5b7f4e487b7100000000000000000000000000000000000000000000000000000000600052602260045260246000fd5b60008160011c9050919050565b611c8f806200081d6000396000f3fe6080604052600436106101145760003560e01c8063715018a6116100a0578063db068e0e11610064578063db068e0e146103a8578063dd62ed3e146103d1578063e6aa216c1461040e578063ea46193e14610439578063f2fde38b1461046457610114565b8063715018a6146102c15780638da5cb5b146102d857806395d89b4114610303578063a457c2d71461032e578063a9059cbb1461036b57610114565b806323b872dd116100e757806323b872dd146101b65780632c6cae36146101f3578063313ce5671461021c578063395093511461024757806370a082311461028457610114565b806306fdde0314610119578063091e9a6014610144578063095ea7b31461014e57806318160ddd1461018b575b600080fd5b34801561012557600080fd5b5061012e61048d565b60405161013b91906116e0565b60405180910390f35b61014c61051f565b005b34801561015a57600080fd5b5061017560048036038101906101709190611260565b610539565b60405161018291906116c5565b60405180910390f35b34801561019757600080fd5b506101a0610557565b6040516101ad9190611822565b60405180910390f35b3480156101c257600080fd5b506101dd60048036038101906101d89190611211565b610561565b6040516101ea91906116c5565b60405180910390f35b3480156101ff57600080fd5b5061021a6004803603810190610215919061129c565b610659565b005b34801561022857600080fd5b506102316106fd565b60405161023e919061183d565b60405180910390f35b34801561025357600080fd5b5061026e60048036038101906102699190611260565b610706565b60405161027b91906116c5565b60405180910390f35b34801561029057600080fd5b506102ab60048036038101906102a691906111ac565b6107b2565b6040516102b89190611822565b60405180910390f35b3480156102cd57600080fd5b506102d66107fa565b005b3480156102e457600080fd5b506102ed610882565b6040516102fa91906116aa565b60405180910390f35b34801561030f57600080fd5b506103186108ac565b60405161032591906116e0565b60405180910390f35b34801561033a57600080fd5b5061035560048036038101906103509190611260565b61093e565b60405161036291906116c5565b60405180910390f35b34801561037757600080fd5b50610392600480360381019061038d9190611260565b610a29565b60405161039f91906116c5565b60405180910390f35b3480156103b457600080fd5b506103cf60048036038101906103ca919061129c565b610a47565b005b3480156103dd57600080fd5b506103f860048036038101906103f391906111d5565b610acd565b6040516104059190611822565b60405180910390f35b34801561041a57600080fd5b50610423610b54565b6040516104309190611822565b60405180910390f35b34801561044557600080fd5b5061044e610b5e565b60405161045b9190611822565b60405180910390f35b34801561047057600080fd5b5061048b600480360381019061048691906111ac565b610b66565b005b60606003805461049c90611b4e565b80601f01602080910402602001604051908101604052809291908181526020018280546104c890611b4e565b80156105155780601f106104ea57610100808354040283529160200191610515565b820191906000526020600020905b8154815290600101906020018083116104f857829003601f168201915b5050505050905090565b6105373033600654346105329190611a6c565b610c5e565b565b600061054d610546610edf565b8484610ee7565b6001905092915050565b6000600254905090565b600061056e848484610c5e565b6000600160008673ffffffffffffffffffffffffffffffffffffffff1673ffffffffffffffffffffffffffffffffffffffff16815260200190815260200160002060006105b9610edf565b73ffffffffffffffffffffffffffffffffffffffff1673ffffffffffffffffffffffffffffffffffffffff16815260200190815260200160002054905082811015610639576040517f08c379a000000000000000000000000000000000000000000000000000000000815260040161063090611782565b60405180910390fd5b61064d85610645610edf565b858403610ee7565b60019150509392505050565b61068c610664610edf565b3061066d6106fd565b60ff16600a61067c919061194e565b846106879190611a6c565b610c5e565b610694610edf565b73ffffffffffffffffffffffffffffffffffffffff166108fc670de0b6b3a7640000600654846106c491906118ca565b6106ce9190611a6c565b9081150290604051600060405180830381858888f193505050501580156106f9573d6000803e3d6000fd5b5050565b60006012905090565b60006107a8610713610edf565b848460016000610721610edf565b73ffffffffffffffffffffffffffffffffffffffff1673ffffffffffffffffffffffffffffffffffffffff16815260200190815260200160002060008873ffffffffffffffffffffffffffffffffffffffff1673ffffffffffffffffffffffffffffffffffffffff168152602001908152602001600020546107a39190611874565b610ee7565b6001905092915050565b60008060008373ffffffffffffffffffffffffffffffffffffffff1673ffffffffffffffffffffffffffffffffffffffff168152602001908152602001600020549050919050565b610802610edf565b73ffffffffffffffffffffffffffffffffffffffff16610820610882565b73ffffffffffffffffffffffffffffffffffffffff1614610876576040517f08c379a000000000000000000000000000000000000000000000000000000000815260040161086d906117a2565b60405180910390fd5b61088060006110b2565b565b6000600560009054906101000a900473ffffffffffffffffffffffffffffffffffffffff16905090565b6060600480546108bb90611b4e565b80601f01602080910402602001604051908101604052809291908181526020018280546108e790611b4e565b80156109345780601f1061090957610100808354040283529160200191610934565b820191906000526020600020905b81548152906001019060200180831161091757829003601f168201915b5050505050905090565b6000806001600061094d610edf565b73ffffffffffffffffffffffffffffffffffffffff1673ffffffffffffffffffffffffffffffffffffffff16815260200190815260200160002060008573ffffffffffffffffffffffffffffffffffffffff1673ffffffffffffffffffffffffffffffffffffffff16815260200190815260200160002054905082811015610a0a576040517f08c379a0000000000000000000000000000000000000000000000000000000008152600401610a0190611802565b60405180910390fd5b610a1e610a15610edf565b85858403610ee7565b600191505092915050565b6000610a3d610a36610edf565b8484610c5e565b6001905092915050565b610a4f610edf565b73ffffffffffffffffffffffffffffffffffffffff16610a6d610882565b73ffffffffffffffffffffffffffffffffffffffff1614610ac3576040517f08c379a0000000000000000000000000000000000000000000000000000000008152600401610aba906117a2565b60405180910390fd5b8060068190555050565b6000600160008473ffffffffffffffffffffffffffffffffffffffff1673ffffffffffffffffffffffffffffffffffffffff16815260200190815260200160002060008373ffffffffffffffffffffffffffffffffffffffff1673ffffffffffffffffffffffffffffffffffffffff16815260200190815260200160002054905092915050565b6000600654905090565b600047905090565b610b6e610edf565b73ffffffffffffffffffffffffffffffffffffffff16610b8c610882565b73ffffffffffffffffffffffffffffffffffffffff1614610be2576040517f08c379a0000000000000000000000000000000000000000000000000000000008152600401610bd9906117a2565b60405180910390fd5b600073ffffffffffffffffffffffffffffffffffffffff168173ffffffffffffffffffffffffffffffffffffffff161415610c52576040517f08c379a0000000000000000000000000000000000000000000000000000000008152600401610c4990611722565b60405180910390fd5b610c5b816110b2565b50565b600073ffffffffffffffffffffffffffffffffffffffff168373ffffffffffffffffffffffffffffffffffffffff161415610cce576040517f08c379a0000000000000000000000000000000000000000000000000000000008152600401610cc5906117c2565b60405180910390fd5b600073ffffffffffffffffffffffffffffffffffffffff168273ffffffffffffffffffffffffffffffffffffffff161415610d3e576040517f08c379a0000000000000000000000000000000000000000000000000000000008152600401610d3590611702565b60405180910390fd5b610d49838383611178565b60008060008573ffffffffffffffffffffffffffffffffffffffff1673ffffffffffffffffffffffffffffffffffffffff16815260200190815260200160002054905081811015610dcf576040517f08c379a0000000000000000000000000000000000000000000000000000000008152600401610dc690611762565b60405180910390fd5b8181036000808673ffffffffffffffffffffffffffffffffffffffff1673ffffffffffffffffffffffffffffffffffffffff16815260200190815260200160002081905550816000808573ffffffffffffffffffffffffffffffffffffffff1673ffffffffffffffffffffffffffffffffffffffff1681526020019081526020016000206000828254610e629190611874565b925050819055508273ffffffffffffffffffffffffffffffffffffffff168473ffffffffffffffffffffffffffffffffffffffff167fddf252ad1be2c89b69c2b068fc378daa952ba7f163c4a11628f55a4df523b3ef84604051610ec69190611822565b60405180910390a3610ed984848461117d565b50505050565b600033905090565b600073ffffffffffffffffffffffffffffffffffffffff168373ffffffffffffffffffffffffffffffffffffffff161415610f57576040517f08c379a0000000000000000000000000000000000000000000000000000000008152600401610f4e906117e2565b60405180910390fd5b600073ffffffffffffffffffffffffffffffffffffffff168273ffffffffffffffffffffffffffffffffffffffff161415610fc7576040517f08c379a0000000000000000000000000000000000000000000000000000000008152600401610fbe90611742565b60405180910390fd5b80600160008573ffffffffffffffffffffffffffffffffffffffff1673ffffffffffffffffffffffffffffffffffffffff16815260200190815260200160002060008473ffffffffffffffffffffffffffffffffffffffff1673ffffffffffffffffffffffffffffffffffffffff168152602001908152602001600020819055508173ffffffffffffffffffffffffffffffffffffffff168373ffffffffffffffffffffffffffffffffffffffff167f8c5be1e5ebec7d5bd14f71427d1e84f3dd0314c0f7b2291e5b200ac8c7c3b925836040516110a59190611822565b60405180910390a3505050565b6000600560009054906101000a900473ffffffffffffffffffffffffffffffffffffffff16905081600560006101000a81548173ffffffffffffffffffffffffffffffffffffffff021916908373ffffffffffffffffffffffffffffffffffffffff1602179055508173ffffffffffffffffffffffffffffffffffffffff168173ffffffffffffffffffffffffffffffffffffffff167f8be0079c531659141344cd1fd0a4f28419497f9722a3daafe3b4186f6b6457e060405160405180910390a35050565b505050565b505050565b60008135905061119181611c2b565b92915050565b6000813590506111a681611c42565b92915050565b6000602082840312156111be57600080fd5b60006111cc84828501611182565b91505092915050565b600080604083850312156111e857600080fd5b60006111f685828601611182565b925050602061120785828601611182565b9150509250929050565b60008060006060848603121561122657600080fd5b600061123486828701611182565b935050602061124586828701611182565b925050604061125686828701611197565b9150509250925092565b6000806040838503121561127357600080fd5b600061128185828601611182565b925050602061129285828601611197565b9150509250929050565b6000602082840312156112ae57600080fd5b60006112bc84828501611197565b91505092915050565b6112ce81611ac6565b82525050565b6112dd81611ad8565b82525050565b60006112ee82611858565b6112f88185611863565b9350611308818560208601611b1b565b61131181611c0d565b840191505092915050565b6000611329602383611863565b91507f45524332303a207472616e7366657220746f20746865207a65726f206164647260008301527f65737300000000000000000000000000000000000000000000000000000000006020830152604082019050919050565b600061138f602683611863565b91507f4f776e61626c653a206e6577206f776e657220697320746865207a65726f206160008301527f64647265737300000000000000000000000000000000000000000000000000006020830152604082019050919050565b60006113f5602283611863565b91507f45524332303a20617070726f766520746f20746865207a65726f20616464726560008301527f73730000000000000000000000000000000000000000000000000000000000006020830152604082019050919050565b600061145b602683611863565b91507f45524332303a207472616e7366657220616d6f756e742065786365656473206260008301527f616c616e636500000000000000000000000000000000000000000000000000006020830152604082019050919050565b60006114c1602883611863565b91507f45524332303a207472616e7366657220616d6f756e742065786365656473206160008301527f6c6c6f77616e63650000000000000000000000000000000000000000000000006020830152604082019050919050565b6000611527602083611863565b91507f4f776e61626c653a2063616c6c6572206973206e6f7420746865206f776e65726000830152602082019050919050565b6000611567602583611863565b91507f45524332303a207472616e736665722066726f6d20746865207a65726f20616460008301527f64726573730000000000000000000000000000000000000000000000000000006020830152604082019050919050565b60006115cd602483611863565b91507f45524332303a20617070726f76652066726f6d20746865207a65726f2061646460008301527f72657373000000000000000000000000000000000000000000000000000000006020830152604082019050919050565b6000611633602583611863565b91507f45524332303a2064656372656173656420616c6c6f77616e63652062656c6f7760008301527f207a65726f0000000000000000000000000000000000000000000000000000006020830152604082019050919050565b61169581611b04565b82525050565b6116a481611b0e565b82525050565b60006020820190506116bf60008301846112c5565b92915050565b60006020820190506116da60008301846112d4565b92915050565b600060208201905081810360008301526116fa81846112e3565b905092915050565b6000602082019050818103600083015261171b8161131c565b9050919050565b6000602082019050818103600083015261173b81611382565b9050919050565b6000602082019050818103600083015261175b816113e8565b9050919050565b6000602082019050818103600083015261177b8161144e565b9050919050565b6000602082019050818103600083015261179b816114b4565b9050919050565b600060208201905081810360008301526117bb8161151a565b9050919050565b600060208201905081810360008301526117db8161155a565b9050919050565b600060208201905081810360008301526117fb816115c0565b9050919050565b6000602082019050818103600083015261181b81611626565b9050919050565b6000602082019050611837600083018461168c565b92915050565b6000602082019050611852600083018461169b565b92915050565b600081519050919050565b600082825260208201905092915050565b600061187f82611b04565b915061188a83611b04565b9250827fffffffffffffffffffffffffffffffffffffffffffffffffffffffffffffffff038211156118bf576118be611b80565b5b828201905092915050565b60006118d582611b04565b91506118e083611b04565b9250826118f0576118ef611baf565b5b828204905092915050565b6000808291508390505b60018511156119455780860481111561192157611920611b80565b5b60018516156119305780820291505b808102905061193e85611c1e565b9450611905565b94509492505050565b600061195982611b04565b915061196483611b04565b92506119917fffffffffffffffffffffffffffffffffffffffffffffffffffffffffffffffff8484611999565b905092915050565b6000826119a95760019050611a65565b816119b75760009050611a65565b81600181146119cd57600281146119d757611a06565b6001915050611a65565b60ff8411156119e9576119e8611b80565b5b8360020a915084821115611a00576119ff611b80565b5b50611a65565b5060208310610133831016604e8410600b8410161715611a3b5782820a905083811115611a3657611a35611b80565b5b611a65565b611a4884848460016118fb565b92509050818404811115611a5f57611a5e611b80565b5b81810290505b9392505050565b6000611a7782611b04565b9150611a8283611b04565b9250817fffffffffffffffffffffffffffffffffffffffffffffffffffffffffffffffff0483118215151615611abb57611aba611b80565b5b828202905092915050565b6000611ad182611ae4565b9050919050565b60008115159050919050565b600073ffffffffffffffffffffffffffffffffffffffff82169050919050565b6000819050919050565b600060ff82169050919050565b60005b83811015611b39578082015181840152602081019050611b1e565b83811115611b48576000848401525b50505050565b60006002820490506001821680611b6657607f821691505b60208210811415611b7a57611b79611bde565b5b50919050565b7f4e487b7100000000000000000000000000000000000000000000000000000000600052601160045260246000fd5b7f4e487b7100000000000000000000000000000000000000000000000000000000600052601260045260246000fd5b7f4e487b7100000000000000000000000000000000000000000000000000000000600052602260045260246000fd5b6000601f19601f8301169050919050565b60008160011c9050919050565b611c3481611ac6565b8114611c3f57600080fd5b50565b611c4b81611b04565b8114611c5657600080fd5b5056fea2646970667358221220f03d92238baae2525c9e05a5c4ca7983a80e0777f9b8235c1f32df3e3c3aca8264736f6c63430008000033",
  "immutableReferences": {},
  "source": "// SPDX-License-Identifier: MIT\r\npragma solidity ^0.8.0;\r\n\r\nimport {ERC20} from '@openzeppelin/contracts/token/ERC20/ERC20.sol';\r\nimport {Ownable} from '@openzeppelin/contracts/access/Ownable.sol';\r\nimport {SafeMath} from '@openzeppelin/contracts/utils/math/SafeMath.sol';\r\nimport {SafeCast} from '@openzeppelin/contracts/utils/math/SafeCast.sol';\r\n\r\ncontract KleeCoinV2 is ERC20(\"KleeCoinV2\",\"KV2\"), Ownable {\r\n    using SafeMath for uint256;\r\n    using SafeCast for uint256;\r\n\r\n    uint256 internal exchangeRate = 10 ;  //10 YMC to 1 ETH\r\n\r\n    constructor() public {\r\n        _mint(msg.sender, 1000* (10 ** uint256(decimals())));\r\n        _mint(address(this),1000 * (10 ** uint256(decimals())));   \r\n    }\r\n\r\n    function buyCoin() public payable {\r\n        //TODO: figure out how to get the ether amount to this address, and convert it to token\r\n        _transfer(address(this),msg.sender,msg.value * exchangeRate);\r\n    }\r\n\r\n    function setExchangeRate(uint256 newExchangeRate) public onlyOwner {\r\n        exchangeRate = newExchangeRate;\r\n    }\r\n    function getExchangeRate() public view returns (uint256) {\r\n        return exchangeRate;\r\n    }\r\n    function getEtherBalance() public view returns (uint256) {\r\n        return address(this).balance;\r\n    }\r\n\r\n    function sellCoin(uint256 amount) public {\r\n        _transfer(_msgSender(),address(this), amount * (10 ** uint256(decimals())));\r\n        payable(_msgSender()).transfer((amount/exchangeRate) * 1 ether);\r\n    }\r\n}",
  "sourcePath": "/Users/ftt.benjamin.chen/Downloads/klee-coin-v2/contracts/KleeCoinV2.sol",
  "compiler": {
    "name": "solc",
    "version": "0.8.0+commit.c7dfd78e.Emscripten.clang"
  },
  "schemaVersion": "3.4.3",
  "updatedAt": "2021-11-07T08:44:57.896Z",
  "networkType": "ethereum",
  "devdoc": {
    "kind": "dev",
    "methods": {
      "allowance(address,address)": {
        "details": "See {IERC20-allowance}."
      },
      "approve(address,uint256)": {
        "details": "See {IERC20-approve}. Requirements: - `spender` cannot be the zero address."
      },
      "balanceOf(address)": {
        "details": "See {IERC20-balanceOf}."
      },
      "decimals()": {
        "details": "Returns the number of decimals used to get its user representation. For example, if `decimals` equals `2`, a balance of `505` tokens should be displayed to a user as `5.05` (`505 / 10 ** 2`). Tokens usually opt for a value of 18, imitating the relationship between Ether and Wei. This is the value {ERC20} uses, unless this function is overridden; NOTE: This information is only used for _display_ purposes: it in no way affects any of the arithmetic of the contract, including {IERC20-balanceOf} and {IERC20-transfer}."
      },
      "decreaseAllowance(address,uint256)": {
        "details": "Atomically decreases the allowance granted to `spender` by the caller. This is an alternative to {approve} that can be used as a mitigation for problems described in {IERC20-approve}. Emits an {Approval} event indicating the updated allowance. Requirements: - `spender` cannot be the zero address. - `spender` must have allowance for the caller of at least `subtractedValue`."
      },
      "increaseAllowance(address,uint256)": {
        "details": "Atomically increases the allowance granted to `spender` by the caller. This is an alternative to {approve} that can be used as a mitigation for problems described in {IERC20-approve}. Emits an {Approval} event indicating the updated allowance. Requirements: - `spender` cannot be the zero address."
      },
      "name()": {
        "details": "Returns the name of the token."
      },
      "owner()": {
        "details": "Returns the address of the current owner."
      },
      "renounceOwnership()": {
        "details": "Leaves the contract without owner. It will not be possible to call `onlyOwner` functions anymore. Can only be called by the current owner. NOTE: Renouncing ownership will leave the contract without an owner, thereby removing any functionality that is only available to the owner."
      },
      "symbol()": {
        "details": "Returns the symbol of the token, usually a shorter version of the name."
      },
      "totalSupply()": {
        "details": "See {IERC20-totalSupply}."
      },
      "transfer(address,uint256)": {
        "details": "See {IERC20-transfer}. Requirements: - `recipient` cannot be the zero address. - the caller must have a balance of at least `amount`."
      },
      "transferFrom(address,address,uint256)": {
        "details": "See {IERC20-transferFrom}. Emits an {Approval} event indicating the updated allowance. This is not required by the EIP. See the note at the beginning of {ERC20}. Requirements: - `sender` and `recipient` cannot be the zero address. - `sender` must have a balance of at least `amount`. - the caller must have allowance for ``sender``'s tokens of at least `amount`."
      },
      "transferOwnership(address)": {
        "details": "Transfers ownership of the contract to a new account (`newOwner`). Can only be called by the current owner."
      }
    },
    "version": 1
  },
  "userdoc": {
    "kind": "user",
    "methods": {},
    "version": 1
  }
}