{
  "contractName": "KleeTokenV6",
  "abi": [
    {
      "inputs": [],
      "stateMutability": "nonpayable",
      "type": "constructor"
    },
    {
      "anonymous": false,
      "inputs": [
        {
          "indexed": true,
          "internalType": "address",
          "name": "owner",
          "type": "address"
        },
        {
          "indexed": true,
          "internalType": "address",
          "name": "approved",
          "type": "address"
        },
        {
          "indexed": true,
          "internalType": "uint256",
          "name": "tokenId",
          "type": "uint256"
        }
      ],
      "name": "Approval",
      "type": "event"
    },
    {
      "anonymous": false,
      "inputs": [
        {
          "indexed": true,
          "internalType": "address",
          "name": "owner",
          "type": "address"
        },
        {
          "indexed": true,
          "internalType": "address",
          "name": "operator",
          "type": "address"
        },
        {
          "indexed": false,
          "internalType": "bool",
          "name": "approved",
          "type": "bool"
        }
      ],
      "name": "ApprovalForAll",
      "type": "event"
    },
    {
      "anonymous": false,
      "inputs": [
        {
          "indexed": true,
          "internalType": "address",
          "name": "previousOwner",
          "type": "address"
        },
        {
          "indexed": true,
          "internalType": "address",
          "name": "newOwner",
          "type": "address"
        }
      ],
      "name": "OwnershipTransferred",
      "type": "event"
    },
    {
      "anonymous": false,
      "inputs": [
        {
          "indexed": true,
          "internalType": "address",
          "name": "from",
          "type": "address"
        },
        {
          "indexed": true,
          "internalType": "address",
          "name": "to",
          "type": "address"
        },
        {
          "indexed": true,
          "internalType": "uint256",
          "name": "tokenId",
          "type": "uint256"
        }
      ],
      "name": "Transfer",
      "type": "event"
    },
    {
      "inputs": [
        {
          "internalType": "address",
          "name": "to",
          "type": "address"
        },
        {
          "internalType": "uint256",
          "name": "tokenId",
          "type": "uint256"
        }
      ],
      "name": "approve",
      "outputs": [],
      "stateMutability": "nonpayable",
      "type": "function"
    },
    {
      "inputs": [
        {
          "internalType": "address",
          "name": "owner",
          "type": "address"
        }
      ],
      "name": "balanceOf",
      "outputs": [
        {
          "internalType": "uint256",
          "name": "",
          "type": "uint256"
        }
      ],
      "stateMutability": "view",
      "type": "function"
    },
    {
      "inputs": [
        {
          "internalType": "uint256",
          "name": "tokenId",
          "type": "uint256"
        }
      ],
      "name": "getApproved",
      "outputs": [
        {
          "internalType": "address",
          "name": "",
          "type": "address"
        }
      ],
      "stateMutability": "view",
      "type": "function"
    },
    {
      "inputs": [
        {
          "internalType": "address",
          "name": "owner",
          "type": "address"
        },
        {
          "internalType": "address",
          "name": "operator",
          "type": "address"
        }
      ],
      "name": "isApprovedForAll",
      "outputs": [
        {
          "internalType": "bool",
          "name": "",
          "type": "bool"
        }
      ],
      "stateMutability": "view",
      "type": "function"
    },
    {
      "inputs": [],
      "name": "name",
      "outputs": [
        {
          "internalType": "string",
          "name": "",
          "type": "string"
        }
      ],
      "stateMutability": "view",
      "type": "function"
    },
    {
      "inputs": [],
      "name": "owner",
      "outputs": [
        {
          "internalType": "address",
          "name": "",
          "type": "address"
        }
      ],
      "stateMutability": "view",
      "type": "function"
    },
    {
      "inputs": [
        {
          "internalType": "uint256",
          "name": "tokenId",
          "type": "uint256"
        }
      ],
      "name": "ownerOf",
      "outputs": [
        {
          "internalType": "address",
          "name": "",
          "type": "address"
        }
      ],
      "stateMutability": "view",
      "type": "function"
    },
    {
      "inputs": [],
      "name": "renounceOwnership",
      "outputs": [],
      "stateMutability": "nonpayable",
      "type": "function"
    },
    {
      "inputs": [
        {
          "internalType": "address",
          "name": "from",
          "type": "address"
        },
        {
          "internalType": "address",
          "name": "to",
          "type": "address"
        },
        {
          "internalType": "uint256",
          "name": "tokenId",
          "type": "uint256"
        }
      ],
      "name": "safeTransferFrom",
      "outputs": [],
      "stateMutability": "nonpayable",
      "type": "function"
    },
    {
      "inputs": [
        {
          "internalType": "address",
          "name": "from",
          "type": "address"
        },
        {
          "internalType": "address",
          "name": "to",
          "type": "address"
        },
        {
          "internalType": "uint256",
          "name": "tokenId",
          "type": "uint256"
        },
        {
          "internalType": "bytes",
          "name": "_data",
          "type": "bytes"
        }
      ],
      "name": "safeTransferFrom",
      "outputs": [],
      "stateMutability": "nonpayable",
      "type": "function"
    },
    {
      "inputs": [
        {
          "internalType": "address",
          "name": "operator",
          "type": "address"
        },
        {
          "internalType": "bool",
          "name": "approved",
          "type": "bool"
        }
      ],
      "name": "setApprovalForAll",
      "outputs": [],
      "stateMutability": "nonpayable",
      "type": "function"
    },
    {
      "inputs": [
        {
          "internalType": "bytes4",
          "name": "interfaceId",
          "type": "bytes4"
        }
      ],
      "name": "supportsInterface",
      "outputs": [
        {
          "internalType": "bool",
          "name": "",
          "type": "bool"
        }
      ],
      "stateMutability": "view",
      "type": "function"
    },
    {
      "inputs": [],
      "name": "symbol",
      "outputs": [
        {
          "internalType": "string",
          "name": "",
          "type": "string"
        }
      ],
      "stateMutability": "view",
      "type": "function"
    },
    {
      "inputs": [
        {
          "internalType": "uint256",
          "name": "tokenId",
          "type": "uint256"
        }
      ],
      "name": "tokenURI",
      "outputs": [
        {
          "internalType": "string",
          "name": "",
          "type": "string"
        }
      ],
      "stateMutability": "view",
      "type": "function"
    },
    {
      "inputs": [
        {
          "internalType": "address",
          "name": "from",
          "type": "address"
        },
        {
          "internalType": "address",
          "name": "to",
          "type": "address"
        },
        {
          "internalType": "uint256",
          "name": "tokenId",
          "type": "uint256"
        }
      ],
      "name": "transferFrom",
      "outputs": [],
      "stateMutability": "nonpayable",
      "type": "function"
    },
    {
      "inputs": [
        {
          "internalType": "address",
          "name": "newOwner",
          "type": "address"
        }
      ],
      "name": "transferOwnership",
      "outputs": [],
      "stateMutability": "nonpayable",
      "type": "function"
    },
    {
      "inputs": [
        {
          "internalType": "string",
          "name": "tokenURI",
          "type": "string"
        },
        {
          "internalType": "uint256",
          "name": "amount",
          "type": "uint256"
        }
      ],
      "name": "awardBakudan",
      "outputs": [
        {
          "internalType": "uint256",
          "name": "",
          "type": "uint256"
        }
      ],
      "stateMutability": "nonpayable",
      "type": "function"
    },
    {
      "inputs": [],
      "name": "getNumToken",
      "outputs": [
        {
          "internalType": "uint256",
          "name": "",
          "type": "uint256"
        }
      ],
      "stateMutability": "view",
      "type": "function"
    },
    {
      "inputs": [
        {
          "internalType": "address",
          "name": "_newkv2",
          "type": "address"
        }
      ],
      "name": "setKV2Address",
      "outputs": [],
      "stateMutability": "nonpayable",
      "type": "function"
    }
  ],
  "bytecode": "0x608060405273d009f8d25d17bf271628dee81a18cc59238d0d0e600a60006101000a81548173ffffffffffffffffffffffffffffffffffffffff021916908373ffffffffffffffffffffffffffffffffffffffff1602179055503480156200006657600080fd5b506040518060400160405280600b81526020017f4b6c6565546f6b656e56360000000000000000000000000000000000000000008152506040518060400160405280600381526020017f4b543600000000000000000000000000000000000000000000000000000000008152508160009080519060200190620000eb9291906200025e565b508060019080519060200190620001049291906200025e565b505050620001276200011b6200019060201b60201c565b6200019860201b60201c565b600a60009054906101000a900473ffffffffffffffffffffffffffffffffffffffff16600960006101000a81548173ffffffffffffffffffffffffffffffffffffffff021916908373ffffffffffffffffffffffffffffffffffffffff16021790555062000373565b600033905090565b6000600760009054906101000a900473ffffffffffffffffffffffffffffffffffffffff16905081600760006101000a81548173ffffffffffffffffffffffffffffffffffffffff021916908373ffffffffffffffffffffffffffffffffffffffff1602179055508173ffffffffffffffffffffffffffffffffffffffff168173ffffffffffffffffffffffffffffffffffffffff167f8be0079c531659141344cd1fd0a4f28419497f9722a3daafe3b4186f6b6457e060405160405180910390a35050565b8280546200026c906200030e565b90600052602060002090601f016020900481019282620002905760008555620002dc565b82601f10620002ab57805160ff1916838001178555620002dc565b82800160010185558215620002dc579182015b82811115620002db578251825591602001919060010190620002be565b5b509050620002eb9190620002ef565b5090565b5b808211156200030a576000816000905550600101620002f0565b5090565b600060028204905060018216806200032757607f821691505b602082108114156200033e576200033d62000344565b5b50919050565b7f4e487b7100000000000000000000000000000000000000000000000000000000600052602260045260246000fd5b6130f980620003836000396000f3fe608060405234801561001057600080fd5b50600436106101215760003560e01c806370a08231116100ad578063b1cd0b1511610071578063b1cd0b15146102f4578063b88d4fde14610324578063c87b56dd14610340578063e985e9c514610370578063f2fde38b146103a057610121565b806370a0823114610262578063715018a6146102925780638da5cb5b1461029c57806395d89b41146102ba578063a22cb465146102d857610121565b8063095ea7b3116100f4578063095ea7b3146101c057806323b872dd146101dc57806342842e0e146101f85780634a81fcca146102145780636352211e1461023257610121565b806301ffc9a7146101265780630290d0931461015657806306fdde0314610172578063081812fc14610190575b600080fd5b610140600480360381019061013b919061211c565b6103bc565b60405161014d9190612a11565b60405180910390f35b610170600480360381019061016b9190611f4c565b61049e565b005b61017a6105c1565b6040516101879190612a2c565b60405180910390f35b6101aa60048036038101906101a591906121c2565b610653565b6040516101b79190612973565b60405180910390f35b6101da60048036038101906101d591906120b7565b6106d8565b005b6101f660048036038101906101f19190611fb1565b6107f0565b005b610212600480360381019061020d9190611fb1565b610850565b005b61021c610870565b6040516102299190612c8e565b60405180910390f35b61024c600480360381019061024791906121c2565b610881565b6040516102599190612973565b60405180910390f35b61027c60048036038101906102779190611f4c565b610933565b6040516102899190612c8e565b60405180910390f35b61029a6109eb565b005b6102a4610a73565b6040516102b19190612973565b60405180910390f35b6102c2610a9d565b6040516102cf9190612a2c565b60405180910390f35b6102f260048036038101906102ed919061207b565b610b2f565b005b61030e6004803603810190610309919061216e565b610cb0565b60405161031b9190612c8e565b60405180910390f35b61033e60048036038101906103399190612000565b610da8565b005b61035a600480360381019061035591906121c2565b610e0a565b6040516103679190612a2c565b60405180910390f35b61038a60048036038101906103859190611f75565b610f5c565b6040516103979190612a11565b60405180910390f35b6103ba60048036038101906103b59190611f4c565b610ff0565b005b60007f80ac58cd000000000000000000000000000000000000000000000000000000007bffffffffffffffffffffffffffffffffffffffffffffffffffffffff1916827bffffffffffffffffffffffffffffffffffffffffffffffffffffffff1916148061048757507f5b5e139f000000000000000000000000000000000000000000000000000000007bffffffffffffffffffffffffffffffffffffffffffffffffffffffff1916827bffffffffffffffffffffffffffffffffffffffffffffffffffffffff1916145b806104975750610496826110e8565b5b9050919050565b6104a6611152565b73ffffffffffffffffffffffffffffffffffffffff166104c4610a73565b73ffffffffffffffffffffffffffffffffffffffff161461051a576040517f08c379a000000000000000000000000000000000000000000000000000000000815260040161051190612bee565b60405180910390fd5b80600a60006101000a81548173ffffffffffffffffffffffffffffffffffffffff021916908373ffffffffffffffffffffffffffffffffffffffff160217905550600a60009054906101000a900473ffffffffffffffffffffffffffffffffffffffff16600960006101000a81548173ffffffffffffffffffffffffffffffffffffffff021916908373ffffffffffffffffffffffffffffffffffffffff16021790555050565b6060600080546105d090612eee565b80601f01602080910402602001604051908101604052809291908181526020018280546105fc90612eee565b80156106495780601f1061061e57610100808354040283529160200191610649565b820191906000526020600020905b81548152906001019060200180831161062c57829003601f168201915b5050505050905090565b600061065e8261115a565b61069d576040517f08c379a000000000000000000000000000000000000000000000000000000000815260040161069490612bce565b60405180910390fd5b6004600083815260200190815260200160002060009054906101000a900473ffffffffffffffffffffffffffffffffffffffff169050919050565b60006106e382610881565b90508073ffffffffffffffffffffffffffffffffffffffff168373ffffffffffffffffffffffffffffffffffffffff161415610754576040517f08c379a000000000000000000000000000000000000000000000000000000000815260040161074b90612c4e565b60405180910390fd5b8073ffffffffffffffffffffffffffffffffffffffff16610773611152565b73ffffffffffffffffffffffffffffffffffffffff1614806107a257506107a18161079c611152565b610f5c565b5b6107e1576040517f08c379a00000000000000000000000000000000000000000000000000000000081526004016107d890612b0e565b60405180910390fd5b6107eb83836111c6565b505050565b6108016107fb611152565b8261127f565b610840576040517f08c379a000000000000000000000000000000000000000000000000000000000815260040161083790612c6e565b60405180910390fd5b61084b83838361135d565b505050565b61086b83838360405180602001604052806000815250610da8565b505050565b600061087c60086115b9565b905090565b6000806002600084815260200190815260200160002060009054906101000a900473ffffffffffffffffffffffffffffffffffffffff169050600073ffffffffffffffffffffffffffffffffffffffff168173ffffffffffffffffffffffffffffffffffffffff16141561092a576040517f08c379a000000000000000000000000000000000000000000000000000000000815260040161092190612b4e565b60405180910390fd5b80915050919050565b60008073ffffffffffffffffffffffffffffffffffffffff168273ffffffffffffffffffffffffffffffffffffffff1614156109a4576040517f08c379a000000000000000000000000000000000000000000000000000000000815260040161099b90612b2e565b60405180910390fd5b600360008373ffffffffffffffffffffffffffffffffffffffff1673ffffffffffffffffffffffffffffffffffffffff168152602001908152602001600020549050919050565b6109f3611152565b73ffffffffffffffffffffffffffffffffffffffff16610a11610a73565b73ffffffffffffffffffffffffffffffffffffffff1614610a67576040517f08c379a0000000000000000000000000000000000000000000000000000000008152600401610a5e90612bee565b60405180910390fd5b610a7160006115c7565b565b6000600760009054906101000a900473ffffffffffffffffffffffffffffffffffffffff16905090565b606060018054610aac90612eee565b80601f0160208091040260200160405190810160405280929190818152602001828054610ad890612eee565b8015610b255780601f10610afa57610100808354040283529160200191610b25565b820191906000526020600020905b815481529060010190602001808311610b0857829003601f168201915b5050505050905090565b610b37611152565b73ffffffffffffffffffffffffffffffffffffffff168273ffffffffffffffffffffffffffffffffffffffff161415610ba5576040517f08c379a0000000000000000000000000000000000000000000000000000000008152600401610b9c90612ace565b60405180910390fd5b8060056000610bb2611152565b73ffffffffffffffffffffffffffffffffffffffff1673ffffffffffffffffffffffffffffffffffffffff16815260200190815260200160002060008473ffffffffffffffffffffffffffffffffffffffff1673ffffffffffffffffffffffffffffffffffffffff16815260200190815260200160002060006101000a81548160ff0219169083151502179055508173ffffffffffffffffffffffffffffffffffffffff16610c5f611152565b73ffffffffffffffffffffffffffffffffffffffff167f17307eab39ab6107e8899845ad3d59bd9653f200f220920489ca2b5937696c3183604051610ca49190612a11565b60405180910390a35050565b6000610cbc600861168d565b6000610cc860086115b9565b9050610cdb610cd5611152565b826116a3565b610ce58185611871565b600960009054906101000a900473ffffffffffffffffffffffffffffffffffffffff1673ffffffffffffffffffffffffffffffffffffffff166323b872dd610d2b611152565b30866040518463ffffffff1660e01b8152600401610d4b9392919061298e565b602060405180830381600087803b158015610d6557600080fd5b505af1158015610d79573d6000803e3d6000fd5b505050506040513d601f19601f82011682018060405250810190610d9d91906120f3565b508091505092915050565b610db9610db3611152565b8361127f565b610df8576040517f08c379a0000000000000000000000000000000000000000000000000000000008152600401610def90612c6e565b60405180910390fd5b610e04848484846118e5565b50505050565b6060610e158261115a565b610e54576040517f08c379a0000000000000000000000000000000000000000000000000000000008152600401610e4b90612bae565b60405180910390fd5b6000600660008481526020019081526020016000208054610e7490612eee565b80601f0160208091040260200160405190810160405280929190818152602001828054610ea090612eee565b8015610eed5780601f10610ec257610100808354040283529160200191610eed565b820191906000526020600020905b815481529060010190602001808311610ed057829003601f168201915b505050505090506000610efe611941565b9050600081511415610f14578192505050610f57565b600082511115610f49578082604051602001610f3192919061294f565b60405160208183030381529060405292505050610f57565b610f5284611958565b925050505b919050565b6000600560008473ffffffffffffffffffffffffffffffffffffffff1673ffffffffffffffffffffffffffffffffffffffff16815260200190815260200160002060008373ffffffffffffffffffffffffffffffffffffffff1673ffffffffffffffffffffffffffffffffffffffff16815260200190815260200160002060009054906101000a900460ff16905092915050565b610ff8611152565b73ffffffffffffffffffffffffffffffffffffffff16611016610a73565b73ffffffffffffffffffffffffffffffffffffffff161461106c576040517f08c379a000000000000000000000000000000000000000000000000000000000815260040161106390612bee565b60405180910390fd5b600073ffffffffffffffffffffffffffffffffffffffff168173ffffffffffffffffffffffffffffffffffffffff1614156110dc576040517f08c379a00000000000000000000000000000000000000000000000000000000081526004016110d390612a6e565b60405180910390fd5b6110e5816115c7565b50565b60007f01ffc9a7000000000000000000000000000000000000000000000000000000007bffffffffffffffffffffffffffffffffffffffffffffffffffffffff1916827bffffffffffffffffffffffffffffffffffffffffffffffffffffffff1916149050919050565b600033905090565b60008073ffffffffffffffffffffffffffffffffffffffff166002600084815260200190815260200160002060009054906101000a900473ffffffffffffffffffffffffffffffffffffffff1673ffffffffffffffffffffffffffffffffffffffff1614159050919050565b816004600083815260200190815260200160002060006101000a81548173ffffffffffffffffffffffffffffffffffffffff021916908373ffffffffffffffffffffffffffffffffffffffff160217905550808273ffffffffffffffffffffffffffffffffffffffff1661123983610881565b73ffffffffffffffffffffffffffffffffffffffff167f8c5be1e5ebec7d5bd14f71427d1e84f3dd0314c0f7b2291e5b200ac8c7c3b92560405160405180910390a45050565b600061128a8261115a565b6112c9576040517f08c379a00000000000000000000000000000000000000000000000000000000081526004016112c090612aee565b60405180910390fd5b60006112d483610881565b90508073ffffffffffffffffffffffffffffffffffffffff168473ffffffffffffffffffffffffffffffffffffffff16148061134357508373ffffffffffffffffffffffffffffffffffffffff1661132b84610653565b73ffffffffffffffffffffffffffffffffffffffff16145b8061135457506113538185610f5c565b5b91505092915050565b8273ffffffffffffffffffffffffffffffffffffffff1661137d82610881565b73ffffffffffffffffffffffffffffffffffffffff16146113d3576040517f08c379a00000000000000000000000000000000000000000000000000000000081526004016113ca90612c0e565b60405180910390fd5b600073ffffffffffffffffffffffffffffffffffffffff168273ffffffffffffffffffffffffffffffffffffffff161415611443576040517f08c379a000000000000000000000000000000000000000000000000000000000815260040161143a90612aae565b60405180910390fd5b61144e8383836119ff565b6114596000826111c6565b6001600360008573ffffffffffffffffffffffffffffffffffffffff1673ffffffffffffffffffffffffffffffffffffffff16815260200190815260200160002060008282546114a99190612e04565b925050819055506001600360008473ffffffffffffffffffffffffffffffffffffffff1673ffffffffffffffffffffffffffffffffffffffff16815260200190815260200160002060008282546115009190612d7d565b92505081905550816002600083815260200190815260200160002060006101000a81548173ffffffffffffffffffffffffffffffffffffffff021916908373ffffffffffffffffffffffffffffffffffffffff160217905550808273ffffffffffffffffffffffffffffffffffffffff168473ffffffffffffffffffffffffffffffffffffffff167fddf252ad1be2c89b69c2b068fc378daa952ba7f163c4a11628f55a4df523b3ef60405160405180910390a4505050565b600081600001549050919050565b6000600760009054906101000a900473ffffffffffffffffffffffffffffffffffffffff16905081600760006101000a81548173ffffffffffffffffffffffffffffffffffffffff021916908373ffffffffffffffffffffffffffffffffffffffff1602179055508173ffffffffffffffffffffffffffffffffffffffff168173ffffffffffffffffffffffffffffffffffffffff167f8be0079c531659141344cd1fd0a4f28419497f9722a3daafe3b4186f6b6457e060405160405180910390a35050565b6001816000016000828254019250508190555050565b600073ffffffffffffffffffffffffffffffffffffffff168273ffffffffffffffffffffffffffffffffffffffff161415611713576040517f08c379a000000000000000000000000000000000000000000000000000000000815260040161170a90612b8e565b60405180910390fd5b61171c8161115a565b1561175c576040517f08c379a000000000000000000000000000000000000000000000000000000000815260040161175390612a8e565b60405180910390fd5b611768600083836119ff565b6001600360008473ffffffffffffffffffffffffffffffffffffffff1673ffffffffffffffffffffffffffffffffffffffff16815260200190815260200160002060008282546117b89190612d7d565b92505081905550816002600083815260200190815260200160002060006101000a81548173ffffffffffffffffffffffffffffffffffffffff021916908373ffffffffffffffffffffffffffffffffffffffff160217905550808273ffffffffffffffffffffffffffffffffffffffff16600073ffffffffffffffffffffffffffffffffffffffff167fddf252ad1be2c89b69c2b068fc378daa952ba7f163c4a11628f55a4df523b3ef60405160405180910390a45050565b61187a8261115a565b6118b9576040517f08c379a00000000000000000000000000000000000000000000000000000000081526004016118b090612b6e565b60405180910390fd5b806006600084815260200190815260200160002090805190602001906118e0929190611d5b565b505050565b6118f084848461135d565b6118fc84848484611a04565b61193b576040517f08c379a000000000000000000000000000000000000000000000000000000000815260040161193290612a4e565b60405180910390fd5b50505050565b606060405180602001604052806000815250905090565b60606119638261115a565b6119a2576040517f08c379a000000000000000000000000000000000000000000000000000000000815260040161199990612c2e565b60405180910390fd5b60006119ac611941565b905060008151116119cc57604051806020016040528060008152506119f7565b806119d684611b9b565b6040516020016119e792919061294f565b6040516020818303038152906040525b915050919050565b505050565b6000611a258473ffffffffffffffffffffffffffffffffffffffff16611d48565b15611b8e578373ffffffffffffffffffffffffffffffffffffffff1663150b7a02611a4e611152565b8786866040518563ffffffff1660e01b8152600401611a7094939291906129c5565b602060405180830381600087803b158015611a8a57600080fd5b505af1925050508015611abb57506040513d601f19601f82011682018060405250810190611ab89190612145565b60015b611b3e573d8060008114611aeb576040519150601f19603f3d011682016040523d82523d6000602084013e611af0565b606091505b50600081511415611b36576040517f08c379a0000000000000000000000000000000000000000000000000000000008152600401611b2d90612a4e565b60405180910390fd5b805181602001fd5b63150b7a0260e01b7bffffffffffffffffffffffffffffffffffffffffffffffffffffffff1916817bffffffffffffffffffffffffffffffffffffffffffffffffffffffff191614915050611b93565b600190505b949350505050565b60606000821415611be3576040518060400160405280600181526020017f30000000000000000000000000000000000000000000000000000000000000008152509050611d43565b600082905060005b60008214611c15578080611bfe90612f20565b915050600a82611c0e9190612dd3565b9150611beb565b60008167ffffffffffffffff811115611c57577f4e487b7100000000000000000000000000000000000000000000000000000000600052604160045260246000fd5b6040519080825280601f01601f191660200182016040528015611c895781602001600182028036833780820191505090505b5090505b60008514611d3c57600182611ca29190612e04565b9150600a85611cb19190612f69565b6030611cbd9190612d7d565b60f81b818381518110611cf9577f4e487b7100000000000000000000000000000000000000000000000000000000600052603260045260246000fd5b60200101907effffffffffffffffffffffffffffffffffffffffffffffffffffffffffffff1916908160001a905350600a85611d359190612dd3565b9450611c8d565b8093505050505b919050565b600080823b905060008111915050919050565b828054611d6790612eee565b90600052602060002090601f016020900481019282611d895760008555611dd0565b82601f10611da257805160ff1916838001178555611dd0565b82800160010185558215611dd0579182015b82811115611dcf578251825591602001919060010190611db4565b5b509050611ddd9190611de1565b5090565b5b80821115611dfa576000816000905550600101611de2565b5090565b6000611e11611e0c84612cda565b612ca9565b905082815260208101848484011115611e2957600080fd5b611e34848285612eac565b509392505050565b6000611e4f611e4a84612d0a565b612ca9565b905082815260208101848484011115611e6757600080fd5b611e72848285612eac565b509392505050565b600081359050611e8981613067565b92915050565b600081359050611e9e8161307e565b92915050565b600081519050611eb38161307e565b92915050565b600081359050611ec881613095565b92915050565b600081519050611edd81613095565b92915050565b600082601f830112611ef457600080fd5b8135611f04848260208601611dfe565b91505092915050565b600082601f830112611f1e57600080fd5b8135611f2e848260208601611e3c565b91505092915050565b600081359050611f46816130ac565b92915050565b600060208284031215611f5e57600080fd5b6000611f6c84828501611e7a565b91505092915050565b60008060408385031215611f8857600080fd5b6000611f9685828601611e7a565b9250506020611fa785828601611e7a565b9150509250929050565b600080600060608486031215611fc657600080fd5b6000611fd486828701611e7a565b9350506020611fe586828701611e7a565b9250506040611ff686828701611f37565b9150509250925092565b6000806000806080858703121561201657600080fd5b600061202487828801611e7a565b945050602061203587828801611e7a565b935050604061204687828801611f37565b925050606085013567ffffffffffffffff81111561206357600080fd5b61206f87828801611ee3565b91505092959194509250565b6000806040838503121561208e57600080fd5b600061209c85828601611e7a565b92505060206120ad85828601611e8f565b9150509250929050565b600080604083850312156120ca57600080fd5b60006120d885828601611e7a565b92505060206120e985828601611f37565b9150509250929050565b60006020828403121561210557600080fd5b600061211384828501611ea4565b91505092915050565b60006020828403121561212e57600080fd5b600061213c84828501611eb9565b91505092915050565b60006020828403121561215757600080fd5b600061216584828501611ece565b91505092915050565b6000806040838503121561218157600080fd5b600083013567ffffffffffffffff81111561219b57600080fd5b6121a785828601611f0d565b92505060206121b885828601611f37565b9150509250929050565b6000602082840312156121d457600080fd5b60006121e284828501611f37565b91505092915050565b6121f481612e38565b82525050565b61220381612e4a565b82525050565b600061221482612d3a565b61221e8185612d50565b935061222e818560208601612ebb565b61223781613056565b840191505092915050565b600061224d82612d45565b6122578185612d61565b9350612267818560208601612ebb565b61227081613056565b840191505092915050565b600061228682612d45565b6122908185612d72565b93506122a0818560208601612ebb565b80840191505092915050565b60006122b9603283612d61565b91507f4552433732313a207472616e7366657220746f206e6f6e20455243373231526560008301527f63656976657220696d706c656d656e74657200000000000000000000000000006020830152604082019050919050565b600061231f602683612d61565b91507f4f776e61626c653a206e6577206f776e657220697320746865207a65726f206160008301527f64647265737300000000000000000000000000000000000000000000000000006020830152604082019050919050565b6000612385601c83612d61565b91507f4552433732313a20746f6b656e20616c7265616479206d696e746564000000006000830152602082019050919050565b60006123c5602483612d61565b91507f4552433732313a207472616e7366657220746f20746865207a65726f2061646460008301527f72657373000000000000000000000000000000000000000000000000000000006020830152604082019050919050565b600061242b601983612d61565b91507f4552433732313a20617070726f766520746f2063616c6c6572000000000000006000830152602082019050919050565b600061246b602c83612d61565b91507f4552433732313a206f70657261746f7220717565727920666f72206e6f6e657860008301527f697374656e7420746f6b656e00000000000000000000000000000000000000006020830152604082019050919050565b60006124d1603883612d61565b91507f4552433732313a20617070726f76652063616c6c6572206973206e6f74206f7760008301527f6e6572206e6f7220617070726f76656420666f7220616c6c00000000000000006020830152604082019050919050565b6000612537602a83612d61565b91507f4552433732313a2062616c616e636520717565727920666f7220746865207a6560008301527f726f2061646472657373000000000000000000000000000000000000000000006020830152604082019050919050565b600061259d602983612d61565b91507f4552433732313a206f776e657220717565727920666f72206e6f6e657869737460008301527f656e7420746f6b656e00000000000000000000000000000000000000000000006020830152604082019050919050565b6000612603602e83612d61565b91507f45524337323155524953746f726167653a2055524920736574206f66206e6f6e60008301527f6578697374656e7420746f6b656e0000000000000000000000000000000000006020830152604082019050919050565b6000612669602083612d61565b91507f4552433732313a206d696e7420746f20746865207a65726f20616464726573736000830152602082019050919050565b60006126a9603183612d61565b91507f45524337323155524953746f726167653a2055524920717565727920666f722060008301527f6e6f6e6578697374656e7420746f6b656e0000000000000000000000000000006020830152604082019050919050565b600061270f602c83612d61565b91507f4552433732313a20617070726f76656420717565727920666f72206e6f6e657860008301527f697374656e7420746f6b656e00000000000000000000000000000000000000006020830152604082019050919050565b6000612775602083612d61565b91507f4f776e61626c653a2063616c6c6572206973206e6f7420746865206f776e65726000830152602082019050919050565b60006127b5602983612d61565b91507f4552433732313a207472616e73666572206f6620746f6b656e2074686174206960008301527f73206e6f74206f776e00000000000000000000000000000000000000000000006020830152604082019050919050565b600061281b602f83612d61565b91507f4552433732314d657461646174613a2055524920717565727920666f72206e6f60008301527f6e6578697374656e7420746f6b656e00000000000000000000000000000000006020830152604082019050919050565b6000612881602183612d61565b91507f4552433732313a20617070726f76616c20746f2063757272656e74206f776e6560008301527f72000000000000000000000000000000000000000000000000000000000000006020830152604082019050919050565b60006128e7603183612d61565b91507f4552433732313a207472616e736665722063616c6c6572206973206e6f74206f60008301527f776e6572206e6f7220617070726f7665640000000000000000000000000000006020830152604082019050919050565b61294981612ea2565b82525050565b600061295b828561227b565b9150612967828461227b565b91508190509392505050565b600060208201905061298860008301846121eb565b92915050565b60006060820190506129a360008301866121eb565b6129b060208301856121eb565b6129bd6040830184612940565b949350505050565b60006080820190506129da60008301876121eb565b6129e760208301866121eb565b6129f46040830185612940565b8181036060830152612a068184612209565b905095945050505050565b6000602082019050612a2660008301846121fa565b92915050565b60006020820190508181036000830152612a468184612242565b905092915050565b60006020820190508181036000830152612a67816122ac565b9050919050565b60006020820190508181036000830152612a8781612312565b9050919050565b60006020820190508181036000830152612aa781612378565b9050919050565b60006020820190508181036000830152612ac7816123b8565b9050919050565b60006020820190508181036000830152612ae78161241e565b9050919050565b60006020820190508181036000830152612b078161245e565b9050919050565b60006020820190508181036000830152612b27816124c4565b9050919050565b60006020820190508181036000830152612b478161252a565b9050919050565b60006020820190508181036000830152612b6781612590565b9050919050565b60006020820190508181036000830152612b87816125f6565b9050919050565b60006020820190508181036000830152612ba78161265c565b9050919050565b60006020820190508181036000830152612bc78161269c565b9050919050565b60006020820190508181036000830152612be781612702565b9050919050565b60006020820190508181036000830152612c0781612768565b9050919050565b60006020820190508181036000830152612c27816127a8565b9050919050565b60006020820190508181036000830152612c478161280e565b9050919050565b60006020820190508181036000830152612c6781612874565b9050919050565b60006020820190508181036000830152612c87816128da565b9050919050565b6000602082019050612ca36000830184612940565b92915050565b6000604051905081810181811067ffffffffffffffff82111715612cd057612ccf613027565b5b8060405250919050565b600067ffffffffffffffff821115612cf557612cf4613027565b5b601f19601f8301169050602081019050919050565b600067ffffffffffffffff821115612d2557612d24613027565b5b601f19601f8301169050602081019050919050565b600081519050919050565b600081519050919050565b600082825260208201905092915050565b600082825260208201905092915050565b600081905092915050565b6000612d8882612ea2565b9150612d9383612ea2565b9250827fffffffffffffffffffffffffffffffffffffffffffffffffffffffffffffffff03821115612dc857612dc7612f9a565b5b828201905092915050565b6000612dde82612ea2565b9150612de983612ea2565b925082612df957612df8612fc9565b5b828204905092915050565b6000612e0f82612ea2565b9150612e1a83612ea2565b925082821015612e2d57612e2c612f9a565b5b828203905092915050565b6000612e4382612e82565b9050919050565b60008115159050919050565b60007fffffffff0000000000000000000000000000000000000000000000000000000082169050919050565b600073ffffffffffffffffffffffffffffffffffffffff82169050919050565b6000819050919050565b82818337600083830152505050565b60005b83811015612ed9578082015181840152602081019050612ebe565b83811115612ee8576000848401525b50505050565b60006002820490506001821680612f0657607f821691505b60208210811415612f1a57612f19612ff8565b5b50919050565b6000612f2b82612ea2565b91507fffffffffffffffffffffffffffffffffffffffffffffffffffffffffffffffff821415612f5e57612f5d612f9a565b5b600182019050919050565b6000612f7482612ea2565b9150612f7f83612ea2565b925082612f8f57612f8e612fc9565b5b828206905092915050565b7f4e487b7100000000000000000000000000000000000000000000000000000000600052601160045260246000fd5b7f4e487b7100000000000000000000000000000000000000000000000000000000600052601260045260246000fd5b7f4e487b7100000000000000000000000000000000000000000000000000000000600052602260045260246000fd5b7f4e487b7100000000000000000000000000000000000000000000000000000000600052604160045260246000fd5b6000601f19601f8301169050919050565b61307081612e38565b811461307b57600080fd5b50565b61308781612e4a565b811461309257600080fd5b50565b61309e81612e56565b81146130a957600080fd5b50565b6130b581612ea2565b81146130c057600080fd5b5056fea264697066735822122070ba028a15da9a7e6f9f28d6e484b18a6e779a664f49c8aa9fb50492f175d28664736f6c63430008000033",
  "immutableReferences": {},
  "source": "// SPDX-License-Identifier: MIT\r\npragma solidity ^0.8.0;\r\n\r\nimport {ERC20} from '@openzeppelin/contracts/token/ERC20/ERC20.sol';\r\nimport {IERC20} from '@openzeppelin/contracts/token/ERC20/IERC20.sol';\r\nimport {Ownable} from '@openzeppelin/contracts/access/Ownable.sol';\r\n\r\nimport {SafeMath} from '@openzeppelin/contracts/utils/math/SafeMath.sol';\r\nimport {SafeCast} from '@openzeppelin/contracts/utils/math/SafeCast.sol';\r\n\r\nimport \"@openzeppelin/contracts/token/ERC721/extensions/ERC721URIStorage.sol\";\r\nimport \"@openzeppelin/contracts/utils/Counters.sol\";\r\n\r\ncontract KleeTokenV6 is ERC721URIStorage, Ownable {\r\n    using SafeMath for uint256;\r\n    using SafeCast for uint256;\r\n\r\n    using Counters for Counters.Counter;\r\n    Counters.Counter private _tokenIds;\r\n\r\n    IERC20 private _KV2;\r\n    address _KV2Address = address(0xD009F8d25d17Bf271628DEE81a18cc59238D0D0e);\r\n\r\n    constructor() ERC721(\"KleeTokenV6\", \"KT6\") {\r\n        _KV2 = IERC20(_KV2Address);\r\n    }\r\n\r\n    function awardBakudan(string memory tokenURI,uint256 amount)\r\n        public\r\n        returns (uint256)\r\n    {\r\n        _tokenIds.increment();\r\n        uint256 newItemId = _tokenIds.current();\r\n        _mint(_msgSender(), newItemId);\r\n        _setTokenURI(newItemId, tokenURI);\r\n\r\n        _KV2.transferFrom(_msgSender(),address(this),amount);  //hardcode the decimals as it's not part of IERC20\r\n        return newItemId;\r\n    }\r\n    function getNumToken() public view returns (uint256) {\r\n        return _tokenIds.current();\r\n    }\r\n\r\n    function setKV2Address(address _newkv2) external onlyOwner {\r\n        _KV2Address = address(_newkv2);\r\n        _KV2 = IERC20(_KV2Address);\r\n    }\r\n}",
  "sourcePath": "/Users/ftt.benjamin.chen/Desktop/klee-nft-v6/contracts/KleeTokenV6.sol",
  "compiler": {
    "name": "solc",
    "version": "0.8.0+commit.c7dfd78e.Emscripten.clang"
  },
  "schemaVersion": "3.4.3",
  "updatedAt": "2021-11-07T09:16:16.055Z",
  "devdoc": {
    "kind": "dev",
    "methods": {
      "approve(address,uint256)": {
        "details": "See {IERC721-approve}."
      },
      "balanceOf(address)": {
        "details": "See {IERC721-balanceOf}."
      },
      "getApproved(uint256)": {
        "details": "See {IERC721-getApproved}."
      },
      "isApprovedForAll(address,address)": {
        "details": "See {IERC721-isApprovedForAll}."
      },
      "name()": {
        "details": "See {IERC721Metadata-name}."
      },
      "owner()": {
        "details": "Returns the address of the current owner."
      },
      "ownerOf(uint256)": {
        "details": "See {IERC721-ownerOf}."
      },
      "renounceOwnership()": {
        "details": "Leaves the contract without owner. It will not be possible to call `onlyOwner` functions anymore. Can only be called by the current owner. NOTE: Renouncing ownership will leave the contract without an owner, thereby removing any functionality that is only available to the owner."
      },
      "safeTransferFrom(address,address,uint256)": {
        "details": "See {IERC721-safeTransferFrom}."
      },
      "safeTransferFrom(address,address,uint256,bytes)": {
        "details": "See {IERC721-safeTransferFrom}."
      },
      "setApprovalForAll(address,bool)": {
        "details": "See {IERC721-setApprovalForAll}."
      },
      "supportsInterface(bytes4)": {
        "details": "See {IERC165-supportsInterface}."
      },
      "symbol()": {
        "details": "See {IERC721Metadata-symbol}."
      },
      "tokenURI(uint256)": {
        "details": "See {IERC721Metadata-tokenURI}."
      },
      "transferFrom(address,address,uint256)": {
        "details": "See {IERC721-transferFrom}."
      },
      "transferOwnership(address)": {
        "details": "Transfers ownership of the contract to a new account (`newOwner`). Can only be called by the current owner."
      }
    },
    "version": 1
  },
  "userdoc": {
    "kind": "user",
    "methods": {},
    "version": 1
  }
}